:060000000C942A000C9490
:1000060000000C9400000C9400000C9400000C946A
:1000160000000C9400000C9400000C9400000C945A
:1000260000000C9400000C9400000C9400000C944A
:1000360000000C9400000C9400000C9400000C943A
:1000460000000C9400000C9400000C940000F8943E
:10005600EE27ECBBF1E0FBBFEBBFE5BFF8E1F1BD7E
:10006600E1BD8DE0A2E0BB27ED938A95E9F780E03C
:1000760094E0A0E6ED930197E9F7EFE5EDBFE4E044
:10008600EEBFC0E6D1E00C94B20093D031F4B19B40
:1000960004C0B29B02C0B39901C002C0E1E05DC0DA
:1000A600B09B06C08BD021F4B29B02C0B39901C0AD
:1000B60002C0E2E052C07DD031F480D021F4B29B80
:1000C60002C0B39901C002C0E3E047C0B09B06C0BE
:1000D600B19B04C078D011F4B39901C002C0E4E02A
:1000E6003CC067D031F4B19B04C06DD011F4B39914
:1000F60001C002C0E5E031C0B09B06C05FD021F46C
:1001060062D011F4B39901C002C0E6E026C051D016
:1001160031F454D021F457D011F4B39901C002C080
:10012600E7E01BC0B09B09C0B19B07C0B29B05C0EE
:10013600A0E0B399A1E0A03009F002C0E8E00DC04C
:1001460038D049F4B19B07C0B29B05C0A0E0B39973
:10015600A1E0A03009F002C0E9E05E2E0895EFEFBD
:10016600EBBBEABBE0E0E8BBE7BBE5BBE4BBE2BB5D
:10017600E1BBE3BFE2BFECBFEFBDEEBDEDBDECBD45
:10018600E7BDE6BDEBBDEABDE9BDE8BDE2BDE5BD47
:10019600E4BDE3BDE5BFE4BFE9BFEAB9E0E8E8B91D
:1001A600E0E0E0BFE6B9EDB9E6BF6FDF5BBAFDCFD1
:1001B600FFCFA0E0B099A1E0A0300895A0E0B199EA
:1001C600A1E0A0300895A0E0B299A1E0A030089582
:00000001FF
