S00C0000436F64652E737265639D
S11300000C942A000C9434000C9434000C943400A6
S11300100C9434000C9434000C9434000C9434008C
S11300200C9434000C9434000C9434000C9434007C
S11300300C9434000C9434000C9434000C9434006C
S11300400C9434000C9434000C9434000C9434005C
S11300500C94340011241FBECFE5D4E0DEBFCDBF25
S11300600E943B000C9452000C94000088E087BB73
S113007089E683BF08950E94360080E08CBFEFE1DB
S1130080FEE43197F1F700C000008F5F8F3FB1F7B6
S11300908CBFEFE1FEE43197F1F700C0000081501E
S10B00A0B9F7EBCFF894FFCF90
S9030000FC
