:080000000C942F000C945F002A
:100008000C9400000C9400000C9400000C94000068
:100018000C9400000C9400000C9400000C94000058
:100028000C9400000C9400000C9400000C94000048
:100038000C9400000C9400000C9400000C94000038
:100048000C9400000C9400000C94000000000100C7
:10005800050054000000F894EE27ECBBF1E0FBBF6C
:10006800EBBFE5BFF8E1F1BDE1BD8DE0A2E0BB2744
:10007800ED938A95E9F780E094E0A0E6ED93019787
:10008800E9F7E6E5F0E085919591009761F0A59193
:10009800B59105901590BF01F00105900D9201975B
:1000A800E1F7FB01F0CFEFE5EDBFE4E0EEBFC0E61E
:1000B800D1E00C9482000A921A92FA926A937A9387
:1000C8008A939A93AA93BA93EA93FA93EFB7EA9327
:1000D800E9E0EBBBECE2F1E0FA93EA930E94C0009E
:1000E800E991EFBFF991E991B991A9919991899114
:1000F80079916991F990199009901895E0E0EBBB16
:10010800EFEFEABBE0E0E8BBE7BBE5BBE4BBE2BB83
:10011800E1BBE3BFE2BFECBFEFBDEEBDEDBDECBDA3
:10012800E7BDE6BDEBBDEABDE9BDE8BDE2BDE5BDA5
:10013800E4BDE3BDEBB7E064EBBFE0E0E5BFE4BFDF
:10014800E0E4EABFE0E0E9BFEAB9E0E8E8B9E0E006
:10015800E0BFE6B9EDB9E6BF7894E6E05E1610F4C4
:10016800539401C055245BBAE4E6F0E0FA93EA93AD
:100178000E94C000F2CFFFCFE991F991309639F093
:1001880080ED97E00197F1F7A8953197C9F70895A1
:00000001FF
