:100000000C942A000C9447000C9447000C94470071
:100010000C9447000C9447000C9447000C94470044
:100020000C9447000C94D2000C9447000C944700A9
:100030000C9447000C9447000C9447000C94470024
:100040000C9447000C9447000C9447000C94470014
:100050000C94470011241FBECFE5D4E0DEBFCDBF16
:1000600010E0A0E6B0E0E4E1F2E002C005900D92FD
:10007000AA36B107D9F720E0AAE6B0E001C01D9288
:10008000A037B207E1F70E9498000C9408010C9485
:100090000000CF93DF93AC019C01ADECBCEC0E945F
:1000A000F900969587959695879596958795BC01C5
:1000B000660F771F9C01220F331F220F331F220F61
:1000C000331F260F371F421B530B1BBA21E02BBBDC
:1000D000DC01A05ABF4F8C9188BB8FE891E001975B
:1000E000F1F700C000001BBA82E08BBBFA01E05AB6
:1000F000FF4F908198BBCFE8D1E02197F1F700C086
:1001000000001BBA2BBB9C9198BBAFE8B1E01197E4
:10011000F1F700C000001BBA8BBB808188BBCFE821
:10012000D1E02197F1F700C00000DF91CF91089551
:1001300083E08ABB1BBA9FEF97BB18BA83BF82E8E4
:1001400082BF89B7816089BF789480916A0090915D
:100150006B000E94490080916C0090916D00A0910D
:100160006E00B0916F00843F9140A105B10568F326
:1001700080916A0090916B008B33910530F4019669
:1001800090936B0080936A0004C010926B001092F1
:100190006A0010926C0010926D0010926E00109226
:1001A0006F00D3CF1F920F920FB60F9211248F932F
:1001B0009F93AF93BF9382E882BF80916C00909130
:1001C0006D00A0916E00B0916F000196A11DB11D50
:1001D00080936C0090936D00A0936E00B0936F00BD
:1001E000BF91AF919F918F910F900FBE0F901F9075
:1001F0001895A29FB001B39FC001A39F700D811DF0
:100200001124911DB29F700D811D1124911D08951F
:04021000F894FFCF90
:0A021400C0F9A4B0999282F880901E
:00000001FF
