:100000000C942A000C943F000C943F000C943F0089
:100010000C943F000C943F000C943F000C943F0064
:100020000C943F000C943F000C943F000C943F0054
:100030000C943F000C943F000C943F000C943F0044
:100040000C943F000C943F000C943F000C943F0034
:100050000C943F0011241FBECFE5D4E0DEBFCDBF1E
:1000600010E0A0E6B0E0E6E8F1E002C005900D92F5
:10007000AA36B107D9F70E9477000C94C1000C94FE
:100080000000AC011BBA81E08BBB9A01ADECBCEC6B
:100090000E94B20096958795969587959695879537
:1000A000FC01E05AFF4F208128BBEFE9FFE03197C8
:1000B000F1F700C000001BBA22E02BBB9C01220F0D
:1000C000331F880F991F880F991F880F991F820F60
:1000D000931F481B590BFA01E05AFF4F808188BBE0
:1000E0008FE99FE00197F1F700C0000008958FEFBE
:1000F00087BB83E08ABB18BA1BBA14BAC0E0D0E051
:10010000CE010E944100989916C0989905C0CE0171
:100110000E944100989BFBCFC336D10528F421965D
:10012000CE010E944100ECCF80E090E00E944100AF
:10013000C0E0D0E0E5CF9999E3CF999905C0CE0111
:100140000E944100999BFBCF209729F02197CE0177
:100150000E944100D5CF83E690E00E944100C3E6B3
:10016000D0E0CECFA29FB001B39FC001A39F700D7E
:10017000811D1124911DB29F700D811D1124911DAF
:060180000895F894FFCF82
:0A018600C0F9A4B0999282F88090AD
:00000001FF
