S01000004C656437446F616E2E7372656346
S11300000C942A000C943F000C943F000C943F0085
S11300100C943F000C943F000C943F000C943F0060
S11300200C943F000C943F000C943F000C943F0050
S11300300C943F000C943F000C943F000C943F0040
S11300400C943F000C943F000C943F000C943F0030
S11300500C943F0011241FBECFE5D4E0DEBFCDBF1A
S113006010E0A0E6B0E0E2EBF0E002C005900D92F3
S1130070AA36B107D9F70E9441000C9457000C949A
S113008000008FEF84BB85BB2AE630E0E0E6F0E0B9
S1130090819185BB4FEF89E698E1415080409040C3
S11300A0E1F700C00000E217F30781F3F1CFF89401
S10500B0FFCF7C
S10D00B2C0F9A4B0999282F880907E
S9030000FC
