S00C0000436F64652E737265639D
S11300000C942A000C9447000C9447000C9447006D
S11300100C9447000C9447000C9447000C94470040
S11300200C9447000C9447000C9447000C94470030
S11300300C9447000C9447000C9447000C94470020
S11300400C9447000C9447000C9447000C94470010
S11300500C94470011241FBECFE5D4E0DEBFCDBF12
S113006010E0A0E6B0E0E2E2F4E002C005900D92F8
S1130070AC36B107D9F720E0ACE6B0E001C01D9280
S1130080AE36B207E1F70E94A9000C940F020C945B
S11300900000CF93DF93AC019C01ADECBCEC0E945B
S11300A00002969587959695879596958795BC01B8
S11300B0660F771F9C01220F331F220F331F220F5D
S11300C0331F260F371FDA01A21BB30B44E150E0A4
S11300D061E0E0E6F0E0EC01C05ADF4F32E0A05A04
S11300E0BF4F24E078E012BA62BB988198BB8FE9D5
S11300F09FE00197F1F700C0000012BA32BB9C9157
S113010098BB8FE99FE00197F1F700C0000012BA95
S113011022BB928598BB8FE99FE00197F1F700C05D
S1130120000012BA72BB938598BB8FE99FE00197D8
S1130130F1F700C0000041505109A9F6DF91CF91B9
S11301400895806487B9369A349BFECF84B195B103
S113015008953E9A86B1836886B98FEF87BB8FE096
S113016081BB80E090E00E94A100BC0180E090E0AF
S11301700E94720123E333E343E050E40E94CA0087
S11301800E943C0170936D0060936C00CB010E944F
S11301904900E7CF0E94DE000C94C6010E94BF0113
S11301A058F00E94B80140F029F45F3F29F00C9404
S11301B0AF0151110C94FA010C94B5010E94D701BE
S11301C068F39923B1F3552391F3951B550BBB2782
S11301D0AA2762177307840738F09F5F5F4F220FC7
S11301E0331F441FAA1FA9F335D00E2E3AF0E0E8BE
S11301F032D091505040E695001CCAF72BD0FE2F08
S113020029D0660F771F881FBB1F2617370748079B
S1130210AB07B0E809F0BB0B802DBF01FF27935853
S11302205F4F3AF09E3F510578F00C94AF010C9467
S1130230FA015F3FE4F3983ED4F38695779567958A
S1130240B795F7959F5FC9F7880F911D9695879588
S113025097F90895E1E0660F771F881FBB1F6217A7
S113026073078407BA0720F0621B730B840BBA0B65
S1130270EE1F88F7E09508950E9443016894B11138
S11302800C94FA0108950E94DF0188F09F5798F0BA
S1130290B92F9927B751B0F0E1F0660F771F881F87
S11302A0991F1AF0BA95C9F714C0B13091F00E94A1
S11302B0F901B1E008950C94F901672F782F88278C
S11302C0B85F39F0B93FCCF3869577956795B395C8
S11302D0D9F73EF490958095709561957F4F8F4F37
S11302E09F4F0895E89409C097FB3EF4909580953C
S11302F0709561957F4F8F4F9F4F9923A9F0F92FE8
S113030096E9BB279395F695879577956795B79565
S1130310F111F8CFFAF4BB0F11F460FF1BC06F5F4B
S11303207F4F8F4F9F4F16C0882311F096E911C05D
S1130330772321F09EE8872F762F05C0662371F07E
S113034096E8862F70E060E02AF09A95660F771F92
S1130350881FDAF7880F9695879597F9089597F986
S11303609F6780E870E060E008959FEF80EC089557
S113037000240A9416161706180609060895002480
S11303800A9412161306140605060895092E0394FA
S1130390000C11F4882352F0BB0F40F4BF2B11F46E
S11303A060FF04C06F5F7F4F8F4F9F4F089557FDCD
S11303B09058440F551F59F05F3F71F04795880FCF
S11303C097FB991F61F09F3F79F087950895121666
S11303D013061406551FF2CF4695F1DF08C0161612
S11303E017061806991FF1CF8695710561050894C3
S11303F00895E894BB2766277727CB0197F90895DA
S1130400A29FB001B39FC001A39F700D811D112451
S1130410911DB29F700D811D1124911D0895F894B2
S1050420FFCF08
S10F0422C0F9A4B0999282F880909CC6A6
S9030000FC
