:100000000C942A000C945F000C9434000C9434007F
:100010000C9434000C9434000C9434000C94340090
:100020000C9434000C9434000C9434000C94340080
:100030000C9434000C9434000C9434000C94340070
:100040000C9434000C9434000C9434000C94340060
:100050000C94340011241FBECFE5D4E0DEBFCDBF29
:100060000E9436000C947D000C9400008FEF8ABB38
:100070001BBA81E081BB12BA8BB780648BBF85B796
:10008000826085BF789421E02BBB3FEF43EC59E0C1
:10009000315040405040E1F700C0000087E090E060
:1000A0003BB3330F3BBB3FEF43EC59E03150404093
:1000B0005040E1F700C00000019731F3F1CF1F92EB
:1000C0000F920FB60F9211242F938F939F938299C3
:1000D0000CC081E082BB2FEF89E698E1215080407F
:1000E0009040E1F700C0000012BA9F918F912F91CC
:0E00F0000F900FBE0F901F901895F894FFCF41
:00000001FF
