S0140000636F64654C43445F344269742E73726563F0
S11300000C942A000C943F000C943F000C943F0085
S11300100C943F000C943F000C943F000C943F0060
S11300200C943F000C943F000C943F000C943F0050
S11300300C943F000C943F000C943F000C943F0040
S11300400C943F000C943F000C943F000C943F0030
S11300500C943F0011241FBECFE5D4E0DEBFCDBF1A
S113006010E0A0E6B0E0EEE8F1E002C005900D92E9
S1130070AC36B107D9F70E94BE000C94C5000C94AD
S11300800000A898982F907F95BBA99AEFECF7E011
S11300903197F1F700C00000A998FFEF21EE34E09A
S11300A0F15020403040E1F700C00000E0E18E9FB5
S11300B0C001112485BBA99A8FEC97E00197F1F751
S11300C000C00000A998EFE9FFE03197F1F700C004
S11300D000000895A89A982F907F95BBA99AEFE9FC
S11300E0FFE03197F1F700C00000A998FFEF21EE7F
S11300F034E0F15020403040E1F700C00000E0E17E
S11301008E9FC001112485BBA99A8FEC97E00197BB
S1130110F1F700C00000A998EFE9FFE03197F1F78B
S113012000C00000089585B3806F85BB8FE39CE910
S11301300197F1F700C0000088E20E94410082E0CC
S11301400E9441008CE00E94410081E00E94410035
S11301508FE99FE00197F1F700C000000895CF9365
S1130160DF93EC018881882331F021960E946A0094
S113017089918111FBCFDF91CF9108950E94930063
S111018080E690E00E94AF00FFCFF894FFCF1E
S10F018E48656C6C6F20576F726B0000AA
S9030000FC
