:0C0000000C942F000C9400000C940000E5
:10000C000C9400000C9400000C9400000C94000064
:10001C000C9400000C9400000C9400000C94000054
:10002C000C9400000C9400000C9400000C94000044
:10003C000C9400000C9400000C9400000C94000034
:10004C000C9400000C94000000000100050054000A
:10005C000000F894EE27ECBBF1E0FBBFEBBFE5BF73
:10006C00F8E1F1BDE1BD8DE0A2E0BB27ED938A95EF
:10007C00E9F780E094E0A0E6ED930197E9F7E6E577
:10008C00F0E085919591009761F0A591B59105905F
:10009C001590BF01F00105900D920197E1F7FB015E
:1000AC00F0CFEFE5EDBFE4E0EEBFC0E6D1E00C949D
:1000BC007500B09B02C0E1E04E2EA0E0B099A1E02B
:1000CC00A03019F4E1E0E41509F008C04424E9E09B
:1000DC005E1610F4539401C055245BBA0895EFEFEB
:1000EC00EBBBEABBE0E0E8BBE7BBE5BBE4BBE2BBD8
:1000FC00E1BBE3BFE2BFECBFEFBDEEBDEDBDECBDC0
:10010C00E7BDE6BDEBBDEABDE9BDE8BDE2BDE5BDC1
:10011C00E4BDE3BDE5BFE4BFE9BFEAB9E0E8E8B997
:10012C00E0E0E0BFE6B9EDB9E6BFC3DFFECFFFCF3D
:00000001FF
