:100000000C942A000C9434000C9434000C943400AA
:100010000C9434000C9434000C9434000C94340090
:100020000C9434000C9434000C9434000C94340080
:100030000C9434000C9434000C9434000C94340070
:100040000C9434000C9434000C9434000C94340060
:100050000C94340011241FBECFE5D4E0DEBFCDBF29
:100060000E9441000C944B000C94000081EB82BF75
:1000700085E083BF08B600FEFDCF13BE81E088BFD8
:1000800008958FEF87BBCFEFC8BB0E94360018BA28
:0A0090000E943600F9CFF894FFCF6C
:00000001FF
