:100000000C942A000C9434000C9434000C943400AA
:100010000C9434000C9434000C9434000C94340090
:100020000C9434000C9434000C9434000C94340080
:100030000C9434000C9434000C9434000C94340070
:100040000C9434000C9434000C9434000C94340060
:100050000C94340011241FBECFE5D4E0DEBFCDBF29
:100060000E9436000C9455000C9400008FEF8ABB60
:100070001BBA21E02BBB3FEF43EC59E0315040402D
:100080005040E1F700C0000087E090E03BB3330F41
:100090003BBB3FEF43EC59E0315040405040E1F76B
:0E00A00000C00000019731F3F1CFF894FFCFBC
:00000001FF
